:100000000C9443000C9460000C9460000C9460000D
:100010000C9460000C9460000C9460000C946000E0
:100020000C9460000C9460000C9460000C946000D0
:100030000C9460000C9483000C9460000C9460009D
:100040000C9460000C9460000C9460000C946000B0
:100050000C9460000C9460000C9460000C946000A0
:100060000C9460000C94600005A84CCDB2D44EB93D
:100070003836A9020C50B9918688083CA6AAAA2A4B
:10008000BE000000803F11241FBECFEFD4E0DEBFD2
:10009000CDBF11E0A0E0B1E0EAE8F7E102C00590D1
:1000A0000D92A430B107D9F712E0A4E0B1E001C08D
:1000B0001D92A430B107E1F70E9462000C94C30BBB
:1000C0000C9400000E94990285E190E00E94B10228
:1000D0000E94AA0288EB9BE00E942F038EEE92E022
:1000E0000E94D20383E290E00E94330684EF91E005
:1000F0000E94940586E990E00E94510784E690E012
:100100000E941307EBCF1F920F920FB60F9211248C
:100110002F933F938F939F93AF93BF93CF93DF938F
:10012000EF93FF938091AD01882309F45EC089E6C7
:100130009FEF90938500809384008091A601909119
:10014000A701A091A801B091A9010097A105B1054F
:1001500099F08091A6019091A701A091A801B0917A
:10016000A9010197A109B1098093A6019093A70164
:10017000A093A801B093A9018091AF018F5F8093F4
:10018000AF019091AE019D5F9093AE01893010F068
:100190001092AF01933318F092539093AE012998C7
:1001A0002A985A985B985C985D985E985F984598F5
:1001B000289841982091AF01283039F088B1922FCA
:1001C000990F990F837E982B98B983E0289FC001DF
:1001D0001124282F8093AC012F5F2093AB012F5F58
:1001E0002093AA011092AD015CC08BE09EEF90932A
:1001F0008500809384008091AC01282F30E0F901C4
:10020000EC5FFE4F80819091AE01981708F4299A17
:100210008091AB01C82FD0E0FE01EC5FFE4F8081E2
:10022000981708F42A9A8091AA01A82FB0E0FD013E
:10023000EC5FFE4F8081981708F45A9AF901EC5F41
:10024000FE4F838D981708F45B9AFE01EC5FFE4F1A
:10025000838D981708F45C9AFD01EC5FFE4F838D47
:10026000981708F45D9A2C5F3E4FF90186A99817FC
:1002700008F45E9ACC5FDE4F8EA9981708F45F9A57
:10028000AC5FBE4FD6968C91981708F4459A809132
:10029000AF01883011F4419A01C0289A81E080931F
:1002A000AD01FF91EF91DF91CF91BF91AF919F9100
:1002B0008F913F912F910F900FBE0F901F90189527
:1002C00080E090E0FC01EB5AFE4F1082138E16AADC
:1002D00001968B319105B1F7089520E030E0F901E6
:1002E000EB5AFE4F8083638F46AB2F5F3F4F2B311E
:1002F0003105A9F70895982F20E030E0F901EB5A75
:10030000FE4F8081890F8083838D860F838F86A91E
:10031000840F86AB2F5F3F4F2B31310579F708955E
:1003200020E030E0D901AB5ABE4F8C91F901EC5F6F
:10033000FE4F80835B968C915B97838FD6968C91D2
:1003400086AB2F5F3F4F2B31310561F70895EF9258
:100350000F93782F842FA22F733010F081E01FC0ED
:10036000633010F082E01BC0433010F083E017C010
:1003700049E0849FA001112422E030E0261B3109CE
:10038000C901880F991F820F931F480F470FE42F51
:10039000F0E0EB5AFE4FA083038FE6AA80E00F91B6
:1003A000EF900895EF920F93782F842FA22F733040
:1003B00010F081E025C0633010F082E021C04330AE
:1003C00010F083E01DC049E0849FA001112422E0C9
:1003D00030E0261B3109C901880F991F820F931F36
:1003E000480F470FE42FF0E0EB5AFE4F80818A0F51
:1003F0008083838D800F838F86A98E0D86AB80E0EE
:100400000F91EF9008950F93E82F962F842FE330EC
:1004100010F081E02AC0633010F082E026C0433043
:1004200010F083E022C0622F70E049E0849FA001B9
:10043000112422E030E0291B3109C901880F991FDE
:10044000820F931F480F4E0F8BE190E0689FF001E1
:10045000699FF00D789FF00D1124E40FF11DEB5A08
:10046000FE4F8081800F808380E00F910895A0E08F
:10047000B0E0BC01CD012EE130E040E050E00E9450
:10048000090B6093A6017093A7018093A801909334
:10049000A9018091A6019091A701A091A801B09116
:1004A000A9010097A105B105A1F7089522EC31E05B
:1004B000AC01429FC001439F900D529F900D1124AB
:1004C000A0E0B0E08093A6019093A701A093A801BB
:1004D000B093A9018091A6019091A701A091A801D4
:1004E000B091A9010097A105B105A1F7089522ECEB
:1004F00031E0AC01429FC001439F900D529F900D8F
:100500001124A0E0B0E08093A6019093A701A093EE
:10051000A801B093A90108958091A6019091A70127
:10052000A091A801B091A9010097A105B105A1F77B
:1005300008953A9A3B9A3C9A209A399A219A229A9B
:10054000529A539A549A559A569A579A3D9A519A52
:100550005098089581E08093810080936F00789493
:1005600008959093C5008093C40082E08093C000FA
:1005700088E18093C10086E08093C2000895982F9F
:100580008091C00085FFFCCF9093C60008958091B4
:10059000C00087FFFCCF8091C6000895AF92BF9244
:1005A000DF92EF92FF920F931F93DF93CF9300D0D0
:1005B0000F92CDB7DEB7FF2490E0DD2410E000E01D
:1005C0005E010894A11CB11C37C0843331F40E9431
:1005D0006001FF2490E0DD2422C0112369F1833300
:1005E00050F5F501E00FF11D80830F5F023018F127
:1005F0008F2D692F4D2D29810A81EE249B830E9426
:10060000A7019B819F5F933050F0F39482E08F1598
:1006100028F4D39482E08D1520F0FF2490E011E0BF
:1006200008C00E9490010E946001FF2490E0DD2438
:1006300010E000E001C011E09B830E94C7029B8193
:10064000833319F60F900F900F90CF91DF911F9188
:100650000F91FF90EF90DF90BF90AF9008956F9251
:100660007F928F929F92AF92BF92CF92DF92EF9242
:10067000FF920F931F93CF93DF934C010E94600171
:10068000AA24BB2459C0BE01882777FD8095982FE6
:100690000E94640920E030E040E05FE30E94F4093A
:1006A0000E94570A20E030E048E452E40E94F40936
:1006B0000E943109FB0177FF03C0F095E195FF4FE0
:1006C000862D6F2D4C2F272D012FEE2E0E94A70176
:1006D0002196C330D105B9F60894C11CD11C83E022
:1006E000C816D10411F1FC2CB601882777FD80953E
:1006F000982F0E94640920E030E040E05FE30E9410
:10070000F4090E94570A20E030E048E452E40E94D5
:10071000F4090E943109CB0177FF03C090958195C0
:100720009F4F182FC0E0D0E0AECF0894A11CB11CA1
:1007300083E0A816B10411F16A2CB501882777FD72
:100740008095982F0E94640920E030E040E05FE34C
:100750000E94F4090E94570A20E030E048E452E485
:100760000E94F4090E943109CB0177FF03C09095E4
:1007700081959F4F782ECC24DD24B5CF0E94900127
:10078000C4010E943702DF91CF911F910F91FF901A
:10079000EF90DF90CF90BF90AF909F908F907F9021
:1007A0006F9008952F923F924F925F926F927F9237
:1007B0008F929F92AF92BF92CF92DF92EF92FF9271
:1007C0000F931F93DF93CF93CDB7DEB765970FB627
:1007D000F894DEBF0FBECDBF9B8B8A8B198A188A17
:1007E00082C181E090E00E9477020E9460016091E6
:1007F000B8017091B9018091BA019091BB0126E0D6
:1008000031E845E95DE30E94CD087B018C016093EE
:10081000B8017093B9018093BA019093BB012BED9D
:100820003FE049E450E40E94F009882384F0C801C5
:10083000B7012BED3FE049E450E40E94CC086093FF
:10084000B8017093B9018093BA019093BB01609194
:10085000B4017091B5018091B6019091B70126E97C
:1008600033E44BE85DE30E94CD087B018C0160938B
:10087000B4017093B5018093B6019093B7012BED4D
:100880003FE049E450E40E94F009882384F0C80165
:10089000B7012BED3FE049E450E40E94CC0860939F
:1008A000B4017093B5018093B6019093B701609144
:1008B000B0017091B1018091B2019091B30125EC2A
:1008C00030E240E35DE30E94CD087B018C01609340
:1008D000B0017093B1018093B2019093B3012BEDFD
:1008E0003FE049E450E40E94F009882384F0C80105
:1008F000B7012BED3FE049E450E40E94CC0860933F
:10090000B0017093B1018093B2019093B30144247C
:1009100055241E821D82D2C02B853C85B9018827B3
:1009200077FD8095982F0E9464092DEC3CEC4CE4F7
:100930005EE30E94F4092091B8013091B901409121
:10094000BA015091BB010E94CD080E94570A7B0159
:100950008C01EB81FC81BF01882777FD8095982F62
:100960000E9464092DEC3CEC4CE45EE30E94F40927
:100970002091B4013091B5014091B6015091B70179
:100980000E94CD080E94570A5B016C01B1018827C3
:1009900077FD8095982F0E9464092DEC3CEC4CE487
:1009A0005EE30E94F4092091B0013091B1014091C1
:1009B000B2015091B3010E94CD080E94570A3B0139
:1009C0004C01C801B70120E030E048E452E40E9445
:1009D000F4090E943109CB017D8B6C8B77FF05C038
:1009E000909581959F4F9D8B8C8BC601B50120E022
:1009F00030E048E452E40E94F4090E9431098B017E
:100A000077FF03C0109501951F4FC401B30120E08B
:100A100030E048E452E40E94F4090E9431097B016D
:100A200077FF04C0F094E194F108F3948F856E850C
:100A30004D852C890E94A701FD85FF5FFD872B85D1
:100A40003C852F5F3F4F3C872B878B819C81019793
:100A50009C838B830894211C311CF33009F05CCFFC
:100A60009E859F5F9E87E981FA813196FA83E983AB
:100A70002F8138852F5F3F4F38872F8389859A854F
:100A800001979A8789879E85933061F0E985FA8579
:100A9000FC87EB872F8138853C832B8329803A8024
:100AA0001D863ACF0894411C511C8D819E8101976F
:100AB0009E838D8393E04916510459F04F86ED8152
:100AC000FE81FA83E98358864F825A8649861E86BC
:100AD000DDCF0E9490010E948C02288939892F5F06
:100AE0003F4F398B288B88899989EA89FB898E1732
:100AF0009F0708F476CE65960FB6F894DEBF0FBE5A
:100B0000CDBFCF91DF911F910F91FF90EF90DF90BC
:100B1000CF90BF90AF909F908F907F906F905F909D
:100B20004F903F902F9008958F929F92AF92BF92D7
:100B3000CF92DF92EF92FF920F931F93CF93DF93A9
:100B40004C01AA24BB247EC00E9460010E94BC0804
:100B500063E070E00E94280BE82EFF240E94BC088E
:100B600063E070E00E94280BC82FD0E0F701EE0F81
:100B7000FF1FEE0DFF1DEC0FFD1FE952FE4F8081A0
:100B8000823018F48F5F80832AC010820E94BC08D4
:100B90008E01000F111F0C0F1D1F970143E0220F44
:100BA000331F4A95E1F72E0D3F1D020F131F04540A
:100BB0001E4F62E370E00E94280BF80180830E94C0
:100BC000BC0862E370E00E94280BF80181830E9458
:100BD000BC0862E370E00E94280BF801828387ED75
:100BE000C82E81E0D82ECCEBD1E010E0812FF601A9
:100BF000608140E028810981EA800E94A701812F5D
:100C0000F601618141E02B810C81ED800E94A701FA
:100C1000812FF601628142E02E810F81E8840E94DB
:100C2000A7011F5F83E090E0C80ED91E29961330FC
:100C3000E9F60E9490018EE190E00E94370208944C
:100C4000A11CB11CA814B90408F47ECFDF91CF9188
:100C50001F910F91FF90EF90DF90CF90BF90AF90DA
:100C60009F908F9008952F923F924F925F926F9234
:100C70007F928F929F92AF92BF92CF92DF92EF922C
:100C8000FF920F931F93CF93DF931C016624772469
:100C9000B3C00E9460010E94BC0862E370E00E9441
:100CA000280B882E0E94BC0862E370E00E94280B8B
:100CB000A82E0E94BC0862E370E00E94280BB82EA8
:100CC0000E94BC0862E070E00E94280B8C01000FBB
:100CD000111FF02E0E94BC0862E070E00E94280BF9
:100CE0006C01CC0CDD1C9C2C0E94BC0862E070E006
:100CF0000E94280BEC01CC0FDD1F1C2F802F6C2DC8
:100D00004C2F282D0A2DEB2C0E94A7010E94900148
:100D100085E090E00E9456024F2C552482E0481650
:100D2000510434F48F2D8F5F6C2D4C2F282D07C06C
:100D30008F2D81506C2D4C2F282D0A2DEB2C0E94CD
:100D4000A701C92CDD2482E0C816D1041CF4692D4A
:100D50006F5F02C0692D61508F2D412F282D0A2D04
:100D6000EB2C0E94A701C12FD0E0C230D1051CF4AA
:100D7000412F4F5F02C0412F41508F2D692D282DEB
:100D80000A2DEB2C0E94A7010E94900185E090E0C3
:100D90000E945602452819F48F2D8E5F02C08F2DB8
:100DA0008250692D412F282D0A2DEB2C0E94A7017E
:100DB000CD2819F4692D6E5F02C0692D62508F2D08
:100DC000412F282D0A2DEB2C0E94A701CD2B11F4C9
:100DD0001E5F01C012508F2D692D412F282D0A2D25
:100DE000EB2C0E94A7010E94900186E990E00E94EE
:100DF00037020894611C711C6214730408F449CF13
:100E0000DF91CF911F910F91FF90EF90DF90CF90E6
:100E1000BF90AF909F908F907F906F905F904F901A
:100E20003F902F900895CF92DF92EF92FF920F9311
:100E30001F93CF93DF936C01C0E0D0E026C00E94E7
:100E4000BC088C010E94BC087C010E94BC089C016B
:100E5000C80162E370E00E94280BF82FC70162E32B
:100E600070E00E94280BE82FC90162E370E00E9445
:100E7000280B482F8F2F6E2F0E946D010E9490012A
:100E80008CE291E00E9437022196CC15DD05B8F284
:100E9000DF91CF911F910F91FF90EF90DF90CF9056
:100EA00008952F923F924F925F926F927F928F920E
:100EB0009F92AF92BF92CF92DF92EF92FF920F93E9
:100EC0001F93DF93CF9300D000D00F92CDB7DEB742
:100ED0009D838C83FE01319683E0DF011D928A950C
:100EE000E9F7442455241F01D8C00E94600140EE58
:100EF000842E41E0942E66247724C4C0F4018081BE
:100F0000898381818A8382818B830E94BC0863E00C
:100F100070E00E94280B082F0E94BC0862E070E07D
:100F20000E94280B202F30E0882331F0F101E20FDE
:100F3000F31F80818F5F05C0F101E20FF31F8081F5
:100F400081508083F101E00FF11D80818330B0F684
:100F50002981D40113968C911397281759F49A81FB
:100F600014968C911497981729F49B8115968C915F
:100F7000981721F2F4018681281749F49A81878114
:100F8000981729F49B818085981709F4B7CFD4016D
:100F900019968C91281709F466C06301CC0CDD1CEE
:100FA000C60CD71CCC0CDD1CCC0CDD1C80EEE82E56
:100FB00081E0F82EEC0CFD1CF7018681818787818A
:100FC00082878085838783818683B4EEAB2EB1E0F0
:100FD000BB2EAC0CBD1CD5018C918783858180878D
:100FE0008081838381818C93E2EEF1E0CE0EDF1E5F
:100FF000D6018C91F701858320838A8181838B813F
:101000008C93818562854385212F06E00E9403022F
:10101000D70116968C91169717966C91179718967C
:101020004C91212F0CE00E940302F7018381D5012E
:101030006C914581212F09E10E940302F701808113
:101040006181D6014C91212F02E30E940302089492
:10105000611C711CECE0F0E08E0E9F1EF3E06F1639
:10106000710481F411C09A81D4011A968C911A9757
:10107000981709F092CF9B811B968C91981709F0D5
:101080008CCF3CCF162D3ACF0E94900184E690E0A1
:101090000E9437020894411C511CEC81FD814E16C0
:1010A0005F0608F422CF0F900F900F900F900F90D3
:1010B000CF91DF911F910F91FF90EF90DF90CF9034
:1010C000BF90AF909F908F907F906F905F904F9068
:1010D0003F902F900895A0E0B0E0E1E7F8E00C9495
:1010E000720BEC01A880B980CA80DB80A114B10426
:1010F000C104D10441F484E2A82E89EDB82E8BE519
:10110000C82E87E0D82EC601B5012DE133EF41E0AE
:1011100050E00E944F0B27EA31E440E050E00E948B
:10112000090B7B018C01C601B5012DE133EF41E0D4
:1011300050E00E944F0BCA01B9012CEE34EF4FEF83
:101140005FEF0E94090B6E0D7F1D801F911F97FF9F
:1011500004C06150704080409048688379838A83DE
:101160009B839B013F77C901CDB7DEB7EAE00C94C2
:101170008E0B0E946B08089580E091E00E946B083E
:101180000895A0E0B0E08093000190930101A09346
:101190000201B093030108955058BB27AA270ED02F
:1011A000E5C0D6D030F0DBD020F031F49F3F11F411
:1011B0001EF4CBC00EF4E095E7FBC1C0E92FE7D0E9
:1011C00080F3BA17620773078407950718F071F464
:1011D0009EF5FFC00EF4E0950B2EBA2FA02D0B014B
:1011E000B90190010C01CA01A0011124FF27591B6C
:1011F00099F0593F50F4503E68F11A16F040A22F72
:10120000232F342F4427585FF3CF469537952795E2
:10121000A795F0405395C9F77EF41F16BA0B620BE1
:10122000730B840BBAF09150A1F0FF0FBB1F661F28
:10123000771F881FC2F70EC0BA0F621F731F841F6B
:1012400048F4879577956795B795F7959E3F08F091
:10125000B3CF9395880F08F09927EE0F9795879550
:10126000089504D06894B111B5C0089598D088F05D
:101270009F5790F0B92F9927B751A0F0D1F0660F82
:10128000771F881F991F1AF0BA95C9F712C0B1309D
:1012900081F09FD0B1E008959CC0672F782F8827F8
:1012A000B85F39F0B93FCCF3869577956795B395DC
:1012B000D9F73EF490958095709561957F4F8F4F4B
:1012C0009F4F0895E89409C097FB3EF49095809550
:1012D000709561957F4F8F4F9F4F9923A9F0F92FFC
:1012E00096E9BB279395F695879577956795B7957A
:1012F000F111F8CFFAF4BB0F11F460FF1BC06F5F60
:101300007F4F8F4F9F4F16C0882311F096E911C071
:10131000772321F09EE8872F762F05C0662371F092
:1013200096E8862F70E060E02AF09A95660F771FA6
:10133000881FDAF7880F9695879597F9089597F99A
:101340009F6780E870E060E008959FEF80EC08956B
:1013500000240A9416161706180609060895002494
:101360000A9412161306140605060895092E03940E
:10137000000C11F4882352F0BB0F40F4BF2B11F482
:1013800060FF04C06F5F7F4F8F4F9F4F089557FDE1
:101390009058440F551F59F05F3F71F04795880FE3
:1013A00097FB991F61F09F3F79F08795089512167A
:1013B00013061406551FF2CF4695F1DF08C0161626
:1013C00017061806991FF1CF8695710561050894D7
:1013D0000895E894BB2766277727CB0197F90895EE
:1013E0006CD008F48FEF08950BD0C0CFB1DF28F098
:1013F000B6DF18F0952309F0A2CFA7CF1124EACFCA
:10140000C6DFA0F3959FD1F3950F50E0551F629F63
:10141000F001729FBB27F00DB11D639FAA27F00D4D
:10142000B11DAA1F649F6627B00DA11D661F829F74
:101430002227B00DA11D621F739FB00DA11D621F59
:10144000839FA00D611D221F749F3327A00D611D76
:10145000231F849F600D211D822F762F6A2F112458
:101460009F5750408AF0E1F088234AF0EE0FFF1FAB
:10147000BB1F661F771F881F91505040A9F79E3FE2
:10148000510570F05CCFA6CF5F3FECF3983EDCF3E4
:10149000869577956795B795F795E7959F5FC1F71F
:1014A000FE2B880F911D9695879597F908959F9328
:1014B00029D00F9007FCEE5F55C0990F0008550F1B
:1014C000AA0BE0E8FEEF16161706E807F907C0F0CA
:1014D00012161306E407F50798F0621B730B840BD2
:1014E000950B39F40A2661F0232B242B252B21F4AC
:1014F00008950A2609F4A140A6958FEF811D811D4C
:10150000089523CF4CDFE8F3E894EFEFBB273FE0EB
:1015100048EC5FE76B3D73078407950708F1FF27E9
:101520009F57B25A6A4D7F40894CF04032F4BE5505
:101530006542704F8643FF4F0894EE1F915030F084
:10154000BB0F661F771F881FFF1FEBCF9EE7882307
:1015500032F0BB0F661F771F881F9A95C1F79395CE
:10156000E09511C0EF93E0FF06C0A2EA2AED3FE04C
:1015700049EC5FEB23DEFADE0F90039401FC9058F8
:10158000E8E6F0E010C09F3F49F0915028F48695BE
:1015900077956795B7959F5F80389F4F880F969591
:1015A000879597F908959F938F937F936F93FF93F8
:1015B000EF939B01AC0118DFEF91FF9105D02F91C4
:1015C0003F914F915F9110CFDF93CF931F930F9374
:1015D000FF92EF92DF927B018C01689405C0DA2EB6
:1015E000EF010EDFFE01E894A5912591359145911B
:1015F0005591AEF3EF01E2DDFE019701A801DA9407
:1016000079F7DF90EF90FF900F911F91CF91DF91CD
:101610000895629FD001739FF001829FE00DF11D3C
:10162000649FE00DF11D929FF00D839FF00D749F5C
:10163000F00D659FF00D9927729FB00DE11DF91F08
:10164000639FB00DE11DF91FBD01CF011124089565
:1016500097FB092E07260AD077FD04D00CD006D0C0
:1016600000201AF4709561957F4F0895F6F79095D4
:1016700081959F4F0895AA1BBB1B51E107C0AA1F6C
:10168000BB1FA617B70710F0A61BB70B881F991F23
:101690005A95A9F780959095BC01CD01089597FBC7
:1016A000092E05260ED057FD04D04BD00AD0001CC1
:1016B00038F450954095309521953F4F4F4F5F4FEF
:1016C0000895F6F790958095709561957F4F8F4FAF
:1016D0009F4F08952F923F924F925F926F927F9209
:1016E0008F929F92AF92BF92CF92DF92EF92FF9232
:1016F0000F931F93CF93DF93CDB7DEB7CA1BDB0BDE
:101700000FB6F894DEBF0FBECDBF09942A88398882
:1017100048885F846E847D848C849B84AA84B98489
:10172000C884DF80EE80FD800C811B81AA81B98195
:10173000CE0FD11D0FB6F894DEBF0FBECDBFED01A9
:101740000895A1E21A2EAA1BBB1BFD010DC0AA1F02
:10175000BB1FEE1FFF1FA217B307E407F50720F01A
:10176000A21BB30BE40BF50B661F771F881F991F95
:101770001A9469F760957095809590959B01AC01DE
:0A178000BD01CF010895F894FFCFDA
:04178A00010000005A
:00000001FF
